:020000040800F2
:10000000A807002089010008FB1900088B170008C9
:10001000F91900088F020008051F00080000000001
:100020000000000000000000000000003F1A00086F
:10003000B9020008000000003D1A0008411A00083B
:10004000A3010008A3010008A3010008A301000800
:10005000A3010008A3010008A3010008A3010008F0
:10006000A3010008A3010008A3010008A3010008E0
:10007000A3010008A3010008A3010008A3010008D0
:10008000A3010008A3010008A3010008A3010008C0
:10009000A3010008A3010008A3010008A3010008B0
:1000A000A3010008A3010008A3010008A3010008A0
:1000B000A3010008A3010008A51A0008A301000875
:1000C000A3010008A3010008A3010008A301000880
:1000D000A3010008A3010008F91E0008A3010008FD
:1000E000A3010008A3010008A301000800F002F822
:1000F00000F03AF80AA090E8000C82448344AAF188
:100100000107DA4501D100F02FF8AFF2090EBAE885
:100110000F0013F0010F18BFFB1A43F0010318473B
:10012000C0240000E0240000103A24BF78C878C141
:10013000FAD8520724BF30C830C144BF04680C60ED
:10014000704700000023002400250026103A28BF35
:1001500078C1FBD8520728BF30C148BF0B60704739
:100160001FB51FBD10B510BD00F058F81146FFF7C0
:10017000F7FF02F07DF800F076F803B4FFF7F2FF26
:1001800003BC00F07DF8000009488047094800479B
:10019000FEE7FEE7FEE7FEE7FEE7FEE7FEE7FEE737
:1001A000FEE7FEE704480549054A064B7047000094
:1001B000A31A0008ED000008A8010020A8070020ED
:1001C000A8030020A80300204FF0000200B513464A
:1001D00094469646203922BFA0E80C50A0E80C5067
:1001E000B1F12001BFF4F7AF090728BFA0E80C5018
:1001F00048BF0CC05DF804EB890028BF40F8042B11
:1002000008BF704748BF20F8022B11F0804F18BF7D
:1002100000F8012B7047704770477047754600F033
:100220002BF8AE4605006946534620F00700854688
:1002300018B020B5FFF7B6FFBDE820404FF000062C
:100240004FF000074FF000084FF0000B21F00701BE
:10025000AC46ACE8C009ACE8C009ACE8C009ACE801
:10026000C0098D46704710B50446AFF300802046A4
:10027000BDE81040FFF781BF0048704748010020EB
:1002800001491820ABBEFEE7260002007047FEE7DA
:1002900003480F210268D16300680E210164704792
:1002A00028000020034806210268D1630068182155
:1002B0000164704728000020704772B6FEE710B551
:1002C00090F821100022022905D00421816380F8D2
:1002D0002020012010BD01680B6823F00E030B6085
:1002E00001680B6823F001030B6090F84030C46B89
:1002F000012101FA03F3636080F8211080F82020C7
:10030000104610BD10B590F821100024022903D02A
:100310000421816301243DE001680A6822F00E0295
:100320000A6001680A6822F001020A601A4A01683C
:10033000914201D1012121E0174A1432914201D1A9
:1003400010211BE0144A2832914201D1891515E091
:10035000114A3C32914201D189140FE00E4A5032C9
:10036000914202D14FF4803108E00B4A643291424D
:1003700002D14FF4801101E04FF08071064A083A33
:100380005160012180F82110002180F82010416B7C
:1003900001B18847204610BD0800024070B50446F0
:1003A00000F094F90546601C02D00448007804442B
:1003B00000F08CF9401BA042FAD370BD1800002059
:1003C0002DE9F04300233E4F0F2573E001229A40B0
:1003D0000A406DD023F00304E619D6F808809C0784
:1003E0004FEA147C05FA0CF909EA0804DFF8D48016
:1003F000404502D14FF0000816E0DFF8CC804045C0
:1004000002D14FF001080FE0DFF8C080404502D173
:100410004FF0020808E0DFF8B880404502D14FF005
:10042000030801E04FF0040808FA0CF8A04522D1B7
:10043000284CD4F800C02CEA020CC4F800C0241DDB
:10044000D4F800C02CEA020CC4F800C0214C0C34D3
:10045000D4F800C02CEA020CC4F800C0241FD4F861
:1004600000C02CEA020CC4F800C0D6F808C02CEA80
:10047000090CC6F808C0FF2A01D8064601E000F1C1
:1004800004064FEA830401D9A4F12004D6F800C081
:1004900005FA04F82CEA080C4FF0040808FA04F8EE
:1004A0004CEA080CC6F800C0C46824EA0204C46020
:1004B00003F1010331FA03F288D1BDE8F0830000B3
:1004C0000000014000080140000C01400010014004
:1004D00000140140000401402DE9F84FDFF8B89105
:1004E0000024A9F1040B23460F2709F1040AABF1FC
:1004F000040EC9E00125A5402A40AA427DD1674EDD
:10050000D1F804C0ACEB0608B44532D014DCBCF121
:10051000030F3AD009DCBCF1000F2AD0BCF1010F67
:100520001CD0BCF1020F31D11DE0BCF1110F17D06E
:10053000BCF1120F2AD119E0B8F5881F19D006DCDA
:10054000B8F5803F15D0B8F5801F1FD111E0B8F580
:10055000001F0ED0B8F5041F18D10AE0CB6815E0D3
:10056000CB681B1D12E0CB6808330FE0CB680C335F
:100570000CE08B682BB1012B4FF0080303D04561D1
:1005800004E0042302E0056100E00023FF2A01D813
:10059000064601E000F104064FEA840501D9A5F101
:1005A0002005D6F8008007FA05FC28EA0C0803FAB3
:1005B00005F548EA0508C6F800804D68ED0062D5EB
:1005C000374DAE6946F00106AE61AD6924F0030611
:1005D00005F001050095334D06EB050CDCF80850DD
:1005E000A607360F07FA06F825EA0805DFF8B880EF
:1005F000404503D14FF0000817E044E0DFF8AC803D
:10060000404502D14FF001080FE0DFF8A4804045DB
:1006100002D14FF0020808E0DFF89880404502D18F
:100620004FF0030801E04FF0040808FA06F848EA22
:100630000508CCF808804D68D9F80060ED024D46F9
:1006400001D5164300E096432E604D68DAF800604D
:10065000AD02554601D5164300E096432E604D6825
:10066000DBF80060AD035D4601D5164300E096431C
:100670002E604D68DEF80060ED03754601D5164327
:1006800000E096432E60641C0D682A46E5407FF426
:1006900031AFBDE8F88F00000804014000001110E0
:1006A000001002400000014000080140000C014021
:1006B00000100140001401408068084000D0012073
:1006C00070470AB1016170470904FBE7014880687F
:1006D0007047000018000020024881680278114429
:1006E0008160704718000020074810B5016841F08C
:1006F00010010160032000F075F80F2000F006F8EB
:1007000000F024F8002010BD0020024070B50D4D0F
:1007100004464FF47A712878B1FBF0F00A49096871
:10072000B1FBF0F000F0DCFA48B9102C07D200223F
:100730002146501E00F036F800206C6070BD01208C
:1007400070BD000018000020240000200C4808B5EF
:10075000816941F001018161816901F0010100912C
:10076000C16941F08051C161C06900F080500090C2
:100770000448416821F0E06141F00071416008BD2A
:100780000010024000000140002809DB00F01F02B9
:10079000012191404009800000F1E020C0F80011E3
:1007A00070470000F0B40E4B1B680C46C3F30223E5
:1007B000C3F10705042D00D90425191D072901D20D
:1007C000002300E0DB1E012606FA05F1491E214048
:1007D00099409E40761E16403143F0BC01F093BB19
:1007E0000CED00E0064900F0070208684FF6FF0331
:1007F000184040EA0220034A104308607047000096
:100800000CED00E00000FA052DE9F0470F46050069
:1008100061D0434E306800F00700B84209D230681A
:1008200020F0070038433060306800F00700B8421D
:1008300051D128683B4C810712D5400703D5606829
:1008400040F4E06060602878000703D5606840F4F9
:10085000605060606068A96820F0F0000843606044
:100860002878C00728D06868012810D0216802289D
:1008700010D0890700292EDA616821F003010143B5
:100880006160FFF723FF804641F288390DE021685F
:100890008903EFE78901EDE7FFF718FFA0EB0801F7
:1008A000494502D90320BDE8F0876068696800F017
:1008B0000C00B0EB810FEFD1306800F00700B842B8
:1008C0000BD9306820F0070038433060306800F002
:1008D0000700B84201D00120E5E72878400705D598
:1008E0006068E96820F4E0600843606028780007E9
:1008F00006D56068296920F4605040EAC100606054
:1009000000F038F86168084AC1F30311515CC8402F
:100910000649086006480068FFF7F8FE0020C2E7B5
:100920000020024000100240C625000824000020DC
:100930001C0000200448054900684968044AC1F3C6
:100940000221515CC8407047240000200010024082
:10095000D62500080448054900684968044AC1F3DF
:10096000C221515CC84070472400002000100240A2
:10097000D62500080E4A51680E4801F00C03042BDE
:1009800011D0082B0FD10C48C1F38343C903C05CBD
:100990000AD55168084AC1F34041921E515C054A8C
:1009A0005043B0FBF1F070470449484370470000E2
:1009B0000010024000127A00B625000800093D0030
:1009C0002DE9F84F040070D02078C04DC00749D001
:1009D0006868C0F38100012807D06868C0F381000F
:1009E000022809D16868C00306D52868800339D574
:1009F00060680028E7D035E06068B0F5803F0BD034
:100A000010B1B0F5A02F11D0286820F480302860F4
:100A1000286820F4802002E0286840F480302860B4
:100A2000606890B1FFF752FE06460AE0286840F47D
:100A300080202860F0E700BFFFF748FE801B642895
:100A400073D828688003F7D50CE0FFF73FFE064611
:100A500005E000BFFFF73AFE801B6428F0D8286845
:100A60008003F7D420789A4E80074FF001094FF0A9
:100A7000000839D5686810F00C0F07D06868C0F31B
:100A80008100022809D16868C00306D4286880075D
:100A900014D52069012808D110E02069B0B1C6F84A
:100AA0000090FFF713FE074605E00AE1FFF70EFE90
:100AB000C01B0228C4D828688007F7D52868616958
:100AC00020F0F80040EAC10028600DE0C6F8008080
:100AD000FFF7FCFD074604E0FFF7F8FDC01B022806
:100AE00023D828688007F7D4207800072CD57948C8
:100AF000A169D9B1C0F80090FFF7E8FD074604E00E
:100B0000FFF7E4FDC01B02280FD8686A8007F7D5FD
:100B100071484FF4FA510068B0FBF1F0009000BF4B
:100B20000098411E0091FAD20EE080E0C0F80080EB
:100B3000FFF7CCFD074604E0FFF7C8FDC01B022805
:100B400075D8686A8007F7D42078400760D5E869CF
:100B50000027C00008D4E86940F08050E861E869E7
:100B6000012700F0805000905C480168C90513D44B
:100B70000168834641F480710160FFF7A7FD82465A
:100B800006E000BFFFF7A2FDA0EB0A0064284ED8E4
:100B9000DBF80000C005F5D5E06801280AD008B1EF
:100BA000052813D0286A20F001002862286A20F066
:100BB000040002E0286A40F001002862E06841F287
:100BC000883B98B1FFF782FD82460BE0286A40F02F
:100BD00004002862EEE700BFFFF778FDA0EB0A01F2
:100BE00059455AD8286A8007F6D50CE0FFF76EFD04
:100BF000824605E0FFF76AFDA0EB0A0159454CD893
:100C0000286A8007F6D41FB1E86920F08050E861B7
:100C1000E06988B36968C1F38101022944D00228E0
:100C2000C6F8608004D0FFF751FD044638E034E098
:100C3000FFF74CFD074604E0FFF748FDC01B022804
:100C40002BD828688001F7D4206AB0F5803F05D101
:100C50006868A16820F4003008436860D4E908019E
:100C60000843696821F4741108436860C6F860900D
:100C7000FFF72CFD044606E025E000BFFFF726FD48
:100C8000001B022809D828688001F7D51BE000BFA7
:100C9000FFF71CFD001B022802D90320BDE8F88FD6
:100CA00028688001F4D40EE00128F7D06868226A31
:100CB00000F48031914204D1616A00F470108842DE
:100CC00001D00120EAE70020E8E700000010024020
:100CD0000000424280044242240000200070004094
:100CE00010B5401EB0F1807F01D3012010BD4FF040
:100CF000E02460610F21601701F005F90020A06178
:100D000007202061002010BD7047704770B590F833
:100D10003C20012A26D0012480F83C40022280F8A1
:100D20003D2003685A689D6822F070060A683243C5
:100D30005A600D4B02689A4208D0B2F1804F05D03C
:100D40000A4B9A4202D00A4B9A4204D1496825F0D4
:100D500080031943916080F83D40002180F83C10E9
:100D6000084670BD022070BD002C01400004004008
:100D70000008004010B5040003D094F83D0010B105
:100D800007E0012010BD002084F83C00204600F060
:100D90001FF8022084F83D00211D206800F088FE25
:100DA000012084F8460084F83E0084F83F0084F86F
:100DB000400084F8410084F8420084F8430084F83D
:100DC000440084F8450084F83D00002010BD000078
:100DD00008B500680B49884212D10B48C16941F03F
:100DE0000401C161C069002200F0040000900121EB
:100DF0001E20FFF7D7FCBDE808401E20FFF7C4BC4B
:100E000008BD0000000800400010024090F83D10AE
:100E1000012901D001207047022180F83D100168AE
:100E2000CA6842F00102CA6000680B49884208D0D3
:100E3000B0F1804F05D00949884202D00849884264
:100E400004D1816801F00701062903D0016841F04F
:100E50000101016000207047002C014000040040A7
:100E6000000800400168CA6822F00102CA600168F7
:100E70000A6A41F211131A4207D10A6A9B101A42F8
:100E800003D10A6822F001020A60012180F83D10B6
:100E90000020704770B5044690F83C0000250128FA
:100EA00017D0012684F83C60022084F83D002068B9
:100EB000826822F0770222F47F428260086850281C
:100EC00038D00DDC20284FD005DC90B3102811D18C
:100ED0004AE0022070BD302846D040280AD13BE0CD
:100EE00060282FD070280DD0B0F5805F03D0B0F50A
:100EF000005F12D0012584F83D60002084F83C009A
:100F0000284670BDCB68D1E90121206800F013FEAE
:100F10002068816841F0770109E0CB68D1E90121BF
:100F2000206800F008FE2068816841F480418160FB
:100F3000E1E719E0CA684968206800F0B1FE502175
:100F4000206806E0CA684968206800F0BAFE60219F
:100F5000206800F0FAFDCEE7CA684968206800F012
:100F60009FFE40212068F4E7226801461046F0E722
:100F7000704770B50446006801694FF00005C94329
:100F8000890715D4C168C943890711D4E91E0161D5
:100F900001202077206880698007204602D0FFF773
:100FA000E7FF04E000F0F0F8204600F09FF9257715
:100FB00020680169C943490717D4C168C943490773
:100FC00013D46FF00401016102202077206880694A
:100FD00010F4407F204602D0FFF7CAFF04E000F083
:100FE000D3F8204600F082F9257720680169C943CB
:100FF000090716D4C168C943090712D46FF0080164
:101000000161042020772068C0698007204602D053
:10101000FFF7AEFF04E000F0B7F8204600F066F9F5
:10102000257720680169C943C90617D4C168C94337
:10103000C90613D46FF010010161082020772068E1
:10104000C06910F4407F204602D0FFF791FF04E012
:1010500000F09AF8204600F049F9257720680169E8
:10106000C943C90708D1C168C943C90704D1891E4A
:101070000161204600F08AF920680169C943090628
:1010800009D4C168C943090605D46FF08001016124
:101090002046FFF739FE20680169C943490609D493
:1010A000C168C943490605D46FF04001016120467B
:1010B00000F07EF920680169C94389060BD4C16834
:1010C000C943890607D46FF0200101612046BDE8BD
:1010D0007040FFF71ABE70BD30B585B00021009199
:1010E000019102910391006822490224224DB0F13E
:1010F000804F24D0214A90421FD1886940F00400DB
:101100008861886900F004000490886940F0080054
:1011100088618869694600F008000490C020CDE924
:10112000000417480394FFF7D7F90320CDE9000422
:10113000694628460394FFF7CFF905B030BD8869AA
:1011400040F0080088618869694600F00800049052
:101150004FF44060CDE9000428460394FFF7BCF942
:101160000848416821F4407141F0E06141F40071A8
:101170004160E2E700100240000C01400004004022
:101180000008014000000140704770B5044690F827
:101190003C0000260D4601280FD0012084F83C00B9
:1011A0006AB1042A1DD0082A2FD00C2A3FD001266C
:1011B000002084F83C00304670BD022070BD2068DD
:1011C00000F0CCFC2068816941F008018161206851
:1011D000816921F004018161206881692A691143D4
:1011E00011E0206800F0E2FC2068816941F40061B0
:1011F00081612068816921F4806181612068816951
:101200002A6941EA02218161D2E7206800F0FAFCF4
:101210002068C16941F00801C1612068C16921F0FD
:101220000401C1612068C1692A69114311E0206885
:1012300000F014FD2068C16941F40061C1612068BB
:10124000C16921F48061C1612068C1692A6941EAEC
:101250000221C161ACE710B5040003D094F83D0051
:1012600010B107E0012010BD002084F83C002046AA
:1012700000F01EF8022084F83D00211D206800F0D7
:1012800017FC012084F8460084F83E0084F83F00F3
:1012900084F8400084F8410084F8420084F8430058
:1012A00084F8440084F8450084F83D00002010BD17
:1012B00008B501680B48B1F1804F0BD00A4A914242
:1012C00007D1C16941F00201C161C06900F00200AB
:1012D000009008BDC16941F00101C161C06900F021
:1012E0000100F5E7001002400004004070470000D4
:1012F00010B50446022249B104290ED0082913D0A2
:1013000094F84100012816D0012010BD94F83E0049
:101310000128F9D184F83E200FE094F83F0001281D
:10132000F2D184F83F2008E094F840000128EBD186
:1013300084F8402001E084F841200122206800F078
:10134000EDFB0F492068884203D1426C42F4004211
:1013500042642068884208D0B0F1804F05D0094926
:10136000884202D00849884204D1816801F007010F
:10137000062903D0016841F001010160002010BD81
:10138000002C01400004004000080040064988424B
:1013900009D106490869401C08612C2803DD40F288
:1013A000DB5000F0EDBE7047B800002000000020C8
:1013B0007047704770470000F8B501680446086838
:1013C000CA684B6910F00F0F4FF000055AD003F0B8
:1013D000010602F49077374365D0C10705D0D105E7
:1013E00003D5616C41F001016164410705D5D9075E
:1013F00003D0616C41F002016164810705D5D90712
:1014000003D0616C41F004016164010707D502F06B
:101410002001314303D0616C41F008016164616CCB
:1014200000293BD0800604D5900602D5204600F066
:1014300089FC20684069616CC0F3801001F00801EC
:10144000014320462BD000F056FC2068406940063E
:1014500021D52068143050E8001F21F0400140E8F9
:101460000012002AF5D1E06BA8B16D494163E06B31
:10147000FEF748FF002811D0E06B416B01B0BDE8DA
:10148000F040084783060ED593060CD52046BDE8EC
:10149000F84000F057BC2046FFF78CFFF8BDFFF77F
:1014A00089FF6564F8BD266B2023012E7CD1C6061A
:1014B0007AD5D60678D508684868009048694FF014
:1014C0000206400640D5E16B086840680004000C45
:1014D000E8D0A28D8242E5D9E085886920282DD008
:1014E00020680C3050E8001F21F4807140E80012A1
:1014F000002AF5D12168143151E8000F20F00100D5
:1015000041E80002002AF5D12068143050E8001F9D
:1015100021F0400140E80012002AF5D184F8423061
:10152000256320680C3050E8001F21F0100140E8CE
:101530000012002AF5D1E06BFEF7C1FE6663A08DB4
:10154000E18D401A81B22AE0A08DE18D401A81B26E
:10155000E08D0028A6D00029A4D022680C3252E8E1
:10156000000F20F4907042E80007002FF5D12068AA
:10157000143050E8002F22F0010240E80027002F2D
:10158000F5D184F84230256320680C3050E8002FF4
:1015900022F0100240E80023002BF5D166632046BC
:1015A000FFF707FFF8BDFFE705062BD5150629D580
:1015B00094F841002128F5D1A068B0F5805F01D1F1
:1015C0002069B0B1206A411C21622168007848601E
:1015D000E08C401E0004000CE084E3D12068C16868
:1015E00021F08001C1602068C16841F04001C16004
:1015F000D8E7206A0088C0F308004860206A801C91
:101600002062E5E74006CDD55006CBD5CA68204616
:1016100022F04002CA6084F8413000F0B5F8C1E71A
:10162000E71C000870B5040004D094F841000025C0
:1016300010B106E0012070BD84F84050204600F053
:1016400023F8242084F841002068C16821F4005167
:10165000C160204600F0D8FB2068016921F4904168
:1016600001612068416921F02A0141612068C16857
:1016700041F40051C1606564202084F8410084F881
:1016800042006563002070BD30B585B00024009431
:101690000194029403940068184988422BD1184899
:1016A000C16941F40031C161C16901F400310491A3
:1016B000816941F0040181618069124D00F00400EC
:1016C00004900420009002200190032003906946BA
:1016D0002846FEF701FF0820CDE9000469462846A8
:1016E0000294FEF7F9FE002211462620FFF75AF871
:1016F0002620FFF749F805B030BD00000044004047
:10170000001002400008014090F84230202B01D028
:101710000220704721B11AB10023036300F0D0BB4F
:10172000012070471649884228D11648817840F236
:10173000DB5072291CD00BDC40F2E730612911D05C
:10174000642911D0672911D0682917D1FEF7AABDE5
:1017500073290FD074290FD077290FD140F2A360DD
:1017600000F00EBD00F01CBC00F092BCFEF790BD76
:1017700000F042BD00F0C8BC00F04EBC7047000055
:1017800000010020000000207047FEE7F0B585B0A2
:10179000002424480094019402940394816941F048
:1017A00010018161816901F010010491816941F0AA
:1017B00020018161816901F020010491816941F07A
:1017C00004018161816901F004010491816941F0A2
:1017D000080181618069144F00F008004FF278061B
:1017E0000490002231463846FEF76BFF781401253D
:1017F0008DE8310069460D48FEF76EFE0220CDE906
:101800000240CDE9006569463846FEF765FE4FF4B3
:10181000F8508DE8310069460548FEF75DFE05B0D9
:10182000F0BD000000100240000C0140001001401B
:101830000008014010B58AB0002407941C216846B6
:101840000894FEF7C1FC1A484FF08041016041F650
:101850001F41C0E90114C721C0E903148461FFF7E7
:10186000FAFC08B1FEF729FD079407A9104808946F
:10187000FFF74CFA08B1FEF720FD6020CDE9000427
:101880000294082269460A480494FFF77EFC08B1D6
:10189000FEF713FD0C2269460548FFF776FC08B1F8
:1018A000FEF70BFD0248FFF717FC0AB010BD000061
:1018B0002800002010B58AB0002407941C21684637
:1018C0000894FEF781FC2248204901604721C0E9C5
:1018D000011440F2CF71C0E903148461FFF7BBFC2F
:1018E00008B1FEF7EAFC079407A919480894FFF726
:1018F0000DFA08B1FEF7E1FC6020CDE90004029486
:101900000022694612480494FFF73FFC08B1FEF735
:10191000D4FC042269460E48FFF737FC08B1FEF7F5
:10192000CCFC082269460A48FFF72FFC08B1FEF7F5
:10193000C4FC0C2269460648FFF727FC08B1FEF7F5
:10194000BCFC0348FFF7C8FB0AB010BD0004004010
:101950007000002010B586B000241848009401944F
:1019600002940394049414490594016041F61F41C4
:10197000C0E9011441F28731C0E90314802181617B
:10198000FFF7F8F908B1FEF798FC4FF4805000908B
:1019900069460A48FFF77EFA08B1FEF78EFC049408
:1019A00004A906480594FFF7B1F9002801D0FEF715
:1019B00084FC06B010BD000000080040B800002004
:1019C0000C4810B50A4901604FF4E1314160002133
:1019D00081600C22C160C0E904128161C161FFF71E
:1019E00021FE002803D0BDE81040FEF766BC10BD04
:1019F0000044004000010020FEE7FEE710B5002192
:101A00000C48FFF775FC04210A48FFF771FC082118
:101A10000848FFF76DFC0C210648FFF769FC082118
:101A20000548FFF765FCBDE810400C210248FFF7B0
:101A30005FBC000070000020280000207047704745
:101A4000FEF74ABE30B58FB028216846FEF7BCFBD2
:101A500014210AA8FEF7B8FB01210804CDE9001003
:101A60000024029402250491CDE907504FF4E010C0
:101A700009906846FEF7A4FF08B172B6FEE70F2092
:101A8000CDE90A054FF48060CDE90C4002210AA897
:101A90000E94FEF7B9FE002801D072B6FEE70FB033
:101AA00030BD70470148FFF764BA0000B80000205D
:101AB000F0B50268164B174C174D4FF0804798420F
:101AC00005D0B84203D0A04201D0A84203D122F0F1
:101AD00070064A683243984205D0B84203D0A0420B
:101AE00001D0A84203D122F44074CA6822434C6951
:101AF00022F08002224302608A68C2620A6882621F
:101B0000984201D10969016301214161F0BD0000E2
:101B1000002C0140000400400008004010B501F016
:101B20001F030121046A99408C430462016A9A40B0
:101B30001143016210BD10B5846842EA032224F407
:101B40007F440A432243826010BD826822F0700203
:101B50000A4342F0070181607047000030B5036A14
:101B6000026A22F0010202624268846924F073056D
:101B70000C682C4323F002058B682B430A4DA842C6
:101B80000BD123F00805CB6822F440722B434D693A
:101B900023F0040315438A692A434260846149683B
:101BA0004163036230BD0000002C014030B5026A81
:101BB000036A23F010030362436884690D6824F408
:101BC000E64444EA05248D6822F0200242EA051228
:101BD0000B4DA8420ED1CD6822F0800242EA0512D8
:101BE0004D6923F4406343EA85038D6922F0400286
:101BF00043EA85034360846149688163026230BDC2
:101C0000002C014030B5036A026A22F4807202623D
:101C10004268C46923F4007324F073050C682C43F4
:101C20008D6843EA05230C4DA8420ED1CD6823F4FC
:101C3000006343EA05234D6922F4405242EA05124B
:101C40008D6923F4806342EA05124260C4614968E9
:101C5000C163036230BD0000002C014030B5046A4E
:101C6000026A22F4805202624268C3690D6823F45A
:101C7000E64343EA05238D6824F4005444EA05341E
:101C8000064DA84204D14D6922F4804242EA8512F1
:101C90004260C36149680164046230BD002C0140A8
:101CA00010B5036A046A24F001040462846924F014
:101CB000F00444EA021423F00A020A438461026237
:101CC00010BD10B5036A046A24F01004046284692C
:101CD00023F0A00324F4704444EA023243EA0111E1
:101CE0008261016210BD10B5406A0021C185C184C6
:101CF000FFF760FB10BD01680C3151E8002F22F4A2
:101D0000907241E80023002BF5D10168143151E8AD
:101D1000002F22F0010241E80023002BF5D1016BD6
:101D2000012909D101680C3151E8002F22F010027D
:101D300041E80023002BF5D1202180F8421000213A
:101D40000163704708B590F84210222901D00220A3
:101D500008BD82684FF480539A4201D1016921B1D4
:101D6000816A9A421BD04AB10AE00268816A5268CD
:101D7000C2F308020A80816A891C08E0026972B114
:101D80000268526802F07F020A70816A491C81620F
:101D9000C18D491E0904090CC18503D01BE00268EE
:101DA0005268F1E70168CA6822F02002CA6001683F
:101DB000CA6822F48072CA6001684A6922F001028E
:101DC0004A61202180F8421000214163026B012A00
:101DD00003D0FFF7A7FC002008BD016301680C31A8
:101DE00051E8002F22F0100241E80023002BF5D12A
:101DF00001680A68D20602D50A6849680091818D97
:101E0000FFF7D7FAE7E7000070B5044600680169FC
:101E1000E26821F44051114301612169A06808433F
:101E2000616908432168CA6841F20C639A4302431E
:101E3000CA6020684169A26921F44071114341617F
:101E40001E492068884202D1FEF784FD01E0FEF7BA
:101E500071FD00EBC00101EB00126068642180009D
:101E6000B2FBF0F3B3FBF1F36FF018067343B2FB70
:101E7000F0F5B2FBF0F605EB8305322303EB051515
:101E8000B5FBF1F5B6FBF1F605F0F00505EB06152F
:101E9000B2FBF0F6B2FBF0F0B0FBF1F06FF018021D
:101EA000504306EB800003EB0010B0FBF1F021681B
:101EB00000F00F002844886070BD00000038014029
:101EC00081628285C28500214164222180F842100E
:101ED000016921B10168CA6842F48072CA60016870
:101EE0004A6942F001024A610068C16841F020017C
:101EF000C1600020704700000148FFF75DBA000094
:101F000000010020FEE70907090E002804DB00F1AC
:101F1000E02080F80014704700F00F0000F1E0208E
:101F200080F8141D704700001B4910B50A68506303
:101F30000B6800F196029A630A68D0630968086426
:101F4000164C012208212046FEF7BBFB002210217F
:101F50002046FEF7B6FB002220212046FEF7B1FB0B
:101F6000012240212046FEF7ACFB0122110320464E
:101F7000FEF7A7FB002261142046FEF7A2FB012218
:101F800091032046FEF79DFB2046BDE8104000224D
:101F90004FF40041FEF795BB70000020000C01409B
:101FA0001B4910B50A6850630B6800F196029A63EA
:101FB0000A68D06309680864164C0122082120468B
:101FC000FEF77FFB002210212046FEF77AFB01225C
:101FD00020212046FEF775FB002240212046FEF717
:101FE00070FB012211032046FEF76BFB00226114F7
:101FF0002046FEF766FB00224FF480412046FEF7A4
:1020000060FB20460122BDE81040D103FEF759BB1A
:1020100070000020000C01401B4910B50B68A0F1B6
:1020200096025A630A6890630A68D0630968086474
:10203000164C002208212046FEF743FB0122102106
:102040002046FEF73EFB002220212046FEF739FB0A
:10205000012240212046FEF734FB0022A114204635
:10206000FEF72FFB012251032046FEF72AFB012237
:1020700091032046FEF725FB2046BDE810400022D4
:102080004FF40041FEF71DBB70000020000C014022
:102090001B4910B50A6850630B6800F196029A63F9
:1020A0000A68D06309680864164C0022082120469B
:1020B000FEF707FB012210212046FEF702FB00225B
:1020C00020212046FEF7FDFA012240212046FEF79E
:1020D000F8FA0022A1142046FEF7F3FA0122510378
:1020E0002046FEF7EEFA012291032046FEF7E9FAB8
:1020F0002046BDE8104000224FF40041FEF7E1BA4F
:1021000070000020000C01401B4910B50A68002037
:1021100050630A6890630A68D06309680864174CC2
:10212000024608212046FEF7CCFA00221021204664
:10213000FEF7C7FA002220212046FEF7C2FA00224D
:1021400040212046FEF7BDFA0022A1142046FEF7EA
:10215000B8FA002261142046FEF7B3FA00224FF4C9
:1021600080412046FEF7ADFA2046BDE8104000222F
:102170004FF40041FEF7A5BA70000020000C0140AA
:102180001B4910B50A6850630B6800F196029A6308
:102190000A68D06309680864164C002208212046AA
:1021A000FEF78FFA012210212046FEF78AFA01225B
:1021B00020212046FEF785FA002240212046FEF726
:1021C00080FA0022A1142046FEF77BFA0122510377
:1021D0002046FEF776FA00224FF480412046FEF7B3
:1021E00070FA20460122BDE81040D103FEF769BA1B
:1021F00070000020000C01401B4910B50B68A0F1D5
:1022000096025A630A6890630A68D0630968086492
:10221000164C012208212046FEF753FA0022102115
:102220002046FEF74EFA012220212046FEF749FA09
:10223000002240212046FEF744FA012211032046E5
:10224000FEF73FFA002261142046FEF73AFA002218
:102250004FF480412046FEF734FA20460122BDE8C3
:102260001040D103FEF72DBA70000020000C014091
:10227000FEF73AFAFFF7E6FBFFF788FAFFF7DAFA1C
:10228000FFF718FBFFF79CFBFFF764FBFFF7B6FBBC
:102290004FF48077DFF80893C24DC34C4FF40058D9
:1022A0007E004FF4806A4FF4006B31462846FEF7FB
:1022B00003FAA08051462846FEF7FEF9E080594611
:1022C0002846FEF7F9F920814FF480512846FEF7A1
:1022D000F3F9608139462846FEF7EEF9A0814146C0
:1022E0004846FEF7E9F9E0812078A189084306D144
:1022F00039462846FEF764F8012020706061207896
:10230000E189014304D001280AD0022831D032E00B
:1023100041464846FEF754F80120207002206061D3
:10232000607840BBA148FEF771FD40F27750FFF79F
:1023300027FF4FF4FF70FEF731F8FFF7E5FE0A20A4
:10234000FEF72CF840F21350FFF7A2FE4FF4FA709C
:10235000FEF724F8FFF7D8FE0A20FEF71FF840F238
:10236000E730FFF70DFFC820FEF718F802202070B5
:102370009BE7607860B36078012896D16069012896
:102380007DD0022891D1FDF783FFA088002877D067
:10239000E0880028FBD0208910B16089002884D112
:1023A0008248FEF75FFD40F21350FFF7BDFD962017
:1023B000FDF7F4FF40F2DB50FFF7F2FD4FF4397008
:1023C000FDF7ECFFFFF7A0FE7848FEF71FFD6CE776
:1023D00031462846FEF770F9012809D151462846B2
:1023E000FEF76AF920B959462846FEF765F930B17B
:1023F00031462846FEF760F9012805D00FE040F28B
:10240000E730FFF7BDFE50E751462846FEF754F986
:10241000012804D159462846FEF74EF930B131461D
:102420002846FEF749F9012805D00FE040F2E730D1
:10243000FFF72EFE39E751462846FEF73DF928B949
:1024400059462846FEF738F9012805D03146284676
:10245000FEF732F918B10CE040F2E7302EE05146B9
:102460002846FEF729F920B959462846FEF724F9EF
:1024700038B131462846FEF71FF970B121E05FE020
:102480007FE040F27160FFF74FFD0120FDF786FF0E
:1024900040F2DB50FFF7B0FE07E751462846FEF753
:1024A0000BF901280DD159462846FEF705F90128F8
:1024B00007D12069052804DA40F2DB50FFF770FDF0
:1024C000F3E631462846FEF7F7F801289BD151463E
:1024D0002846FEF7F1F8012895D159462846FEF71F
:1024E000EBF801288FD1206924288CDD2F48FEF7D6
:1024F000B9FC40F2E730FFF743FE8220FDF74EFFC4
:1025000040F2DB50FFF74CFD4FF42F70FDF746FF14
:10251000FFF7FAFD0120FDF741FF40F2DB50FFF726
:102520002FFE4FF48270FDF739FFFFF7EDFD0A2013
:10253000FDF734FF1D48FEF769FC01206070B4E62A
:10254000A08860B1E08850B1208988B1608978B1F5
:1025500015490122891C1648FFF7D6F8A5E613484D
:10256000FEF780FC40F21350FFF7DEFCBE2010E0C7
:102570000E48FEF777FC40F21350FFF7D5FCBE2063
:1025800016E70A48FEF76EFC40F21350FFF7CCFC4A
:102590009620FDF703FF40F2DB50FFF779FD0DE7D2
:1025A000001001400008014000000020B800002099
:1025B00000010020010202030405060708090A0BB6
:1025C0000C0D0E0F101000000000000000000102B2
:1025D00003040607080900000000010203040000CC
:1025E0000026000800000020280000002801000844
:1025F0002826000828000020800700004401000869
:1026000000000000000000000000000000000000CA
:1026100000000000000000000100000010000000A9
:08262000000000000024F4009A
:04000005080000ED02
:00000001FF
